:020000040800F2
:1000000000000120C5020008CB020008CF02000852
:10001000E7020008EB0200080303000800000000EC
:100020000000000000000000000000001B030008AA
:100030001F03000800000000230300082703000836
:1000400035030008350300083503000835030008B0
:1000500035030008350300083503000835030008A0
:100060003503000835030008350300083503000890
:100070003503000835030008350300083503000880
:1000800035030008350300083503000800000000B0
:100090000000000000000000000000003503000820
:1000A0003503000835030008350300083503000850
:1000B0003503000835030008350300083503000840
:1000C0003503000835030008350300083503000830
:1000D0003503000835030008350300080000000060
:1000E0003503000835030008350300080000000050
:1000F00000000000000000000000000035030008C0
:10010000000000003503000835030008350300082F
:1001100000000000000000000000000000000000DF
:1001200035030008350300083503000835030008CF
:10013000350300080000000000000000000000007F
:10014000000000000000000000000000350300086F
:10015000350300083503000835030008350300089F
:10016000350300083503000800000000000000000F
:10017000000000000000000000000000000000007F
:10018000000000003503000800000000000000002F
:100190003503000800B583B000F0ECF8384B394A5D
:1001A0001360394A1360394900E02146384B9942BF
:1001B0000BD20A684B6801F10C0488689842F4D9A4
:1001C0001168196004330432F8E72E4B1A68314B7A
:1001D0009A4200D0FEE72C4B1A682F4B9A42F9D175
:1001E000274B2E4A13602E4A13602E4B05E0002049
:1001F000106004329342FAD80B462B4A934204D241
:10020000194651F8082B5B68F4E7244B1B6813B9B7
:10021000234B1B6803B1FEE700F0B8F8694601A85C
:1002200000F0A0F8214C224BE41AA4100025AC42A7
:1002300014DC204C204BE41AA4100025AC4213DC43
:100240000099019800F09AFC05461C4C1C4BE41ADE
:10025000A410002C0EDC284600F082F8144B53F852
:10026000253098470135E2E7134B53F8253098477E
:100270000135E3E7013C124B53F824309847E8E797
:10028000BABADECA000000201001002038030008BE
:100290005003000878563412325476981401002026
:1002A00024010020500300086003000860030008D8
:1002B0006003000860030008600300086003000892
:1002C0006003000808B5FFF765FF00BEFEE71EF0FB
:1002D000040F0CBFEFF30880EFF309807146124A58
:1002E000104700BEFEE700BEFEE71EF0040F0CBF85
:1002F000EFF30880EFF3098071460C4A104700BE07
:10030000FEE71EF0040F0CBFEFF30880EFF3098047
:100310007146074A104700BEFEE700BEFEE700BE7A
:10032000FEE700BEFEE77047E3020008FF02000898
:080330001703000800BEFEE700
:10033800280E00080000002014010020280E0008E4
:100348000000001000000010140100202801002007
:0803580000000010000000107D
:10036000FEE7000001230360014B0B60704700BFF4
:100370000400002008B500F00DF8024A024B9A6014
:1003800008BD00BF0000000800ED00E008B500F067
:1003900021F808BD0C4B1A6842F001021A600021D6
:1003A00099601A6822F0847222F480321A60074A37
:1003B0005A601A6822F480221A60D960044B4FF008
:1003C00000629A60704700BF00380240103000247D
:1003D00000ED00E0224B9B6803F00C03042B14D0CB
:1003E000082B16D01BB11F4B1F4A1A6002E01D4B91
:1003F0001D4A1A601A4B9B68C3F303131B4AD15C56
:10040000184A1368CB4013607047164B184A1A609D
:10041000F0E7134B5A685B6803F03F0312F4800F58
:1004200013D0134AB2FBF3F20D4B5B68C3F388138E
:1004300003FB02F30A4A5268C2F30142013252003E
:10044000B3FBF2F3074A1360D4E7074AB2FBF3F2B7
:10045000034B5B68C3F3881303FB02F3EAE700BFB7
:10046000003802400C0000200024F400180E0008A0
:1004700040787D0108B501220021104600F070FA95
:1004800001221146104600F06BFA012205211046A8
:1004900000F066FA01220621104600F061FA0122FE
:1004A0000721104600F05CFA01220821104600F0F6
:1004B00057FA01220921104600F052FA01220A21BE
:1004C000104600F04DFA08BD10B5044600F00102D8
:1004D0000021084600F044FAC4F340020121002044
:1004E00000F03EFAC4F380020221002000F038FA46
:1004F000C4F3C0020321002000F032FAC4F300125A
:100500000421002000F02CFAC4F340120521002041
:1005100000F026FAC4F380120621002000F020FA31
:10052000E2090721002000F01BFA10BD08B50122E6
:100530000021084600F060F901221146002000F079
:100540005BF901220221002000F056F9012203216B
:10055000002000F051F901220421002000F04CF9A4
:1005600001220521002000F047F901220621002088
:1005700000F042F901220721002000F03DF901229C
:100580000021104600F038F901221146104600F013
:1005900033F901220521104600F02EF9012206212F
:1005A000104600F029F901220721104600F024F935
:1005B00001220821104600F01FF9012209211046EE
:1005C00000F01AF901220A21104600F015F9002264
:1005D0001146104600F04EF900220121104600F0AD
:1005E00049F900220221104600F044F900220321BB
:1005F000104600F03FF900220421104600F03AF9BD
:1006000000220521104600F035F90022062110468F
:1006100000F030F900220721104600F02BF90022EB
:100620001146012000F026F900220121084600F0C1
:1006300021F900220521012000F01CF900220621E9
:10064000012000F017F900220721012000F012F923
:1006500000220821012000F00DF9002209210120CB
:1006600000F008F900220A21012000F003F901221C
:100670000021084600F036F901221146002000F062
:1006800031F901220221002000F02CF9012203217E
:10069000002000F027F901220421002000F022F9B7
:1006A00001220521002000F01DF901220621002071
:1006B00000F018F901220721002000F013F90122AF
:1006C0000021104600F00EF901221146104600F0FC
:1006D00009F901220521104600F004F90122062142
:1006E000104600F0FFF801220721104600F0FAF84A
:1006F00001220821104600F0F5F8012209211046D8
:1007000000F0F0F801220A21104600F0EBF808BDD5
:1007100010B50446FFF7AEFE2078FFF7D5FE0022A5
:100720001146012000F01CF944F6206000F014FA94
:10073000FFF7A0FE6078FFF7C7FE00220121084600
:1007400000F00EF944F6206000F006FAFFF792FE82
:10075000A078FFF7B9FE00220521012000F000F982
:1007600044F6206000F0F8F9FFF784FEE078FFF728
:10077000ABFE00220621012000F0F2F844F62060D2
:1007800000F0EAF9FFF776FE2079FFF79DFE0022E0
:100790000721012000F0E4F844F6206000F0DCF9C5
:1007A000FFF768FE6079FFF78FFE00220821012025
:1007B00000F0D6F844F6206000F0CEF9FFF75AFEBC
:1007C000A079FFF781FE00220921012000F0C8F87E
:1007D00044F6206000F0C0F9FFF74CFEE079FFF727
:1007E00073FE00220A21012000F0BAF844F62060CE
:1007F00000F0B2F910BD000005282DD8DFE800F0A8
:10080000030A11181F261548036849008A401A4335
:10081000026070471248036849008A401A43026028
:1008200070471048036849008A401A4302607047C5
:100830000D48036849008A401A43026070470B481C
:10084000036849008A401A430260704708480368F9
:1008500049008A401A430260704700BF000002400E
:100860000004024000080240000C02400010024058
:10087000001C0240052827D8DFE800F003090F1507
:100880001B21124843688A401A434260704710484F
:1008900043688A401A43426070470E4843688A4062
:1008A0001A43426070470C4843688A401A434260CA
:1008B00070470A4843688A401A43426070470848B4
:1008C00043688A401A434260704700BF00000240FC
:1008D0000004024000080240000C024000100240E8
:1008E000001C024005282DD8DFE800F0030A11188B
:1008F0001F261548836849008A401A438260704762
:100900001248836849008A401A4382607047104841
:10091000836849008A401A43826070470D488368A3
:1009200049008A401A43826070470B488368490037
:100930008A401A43826070470848836849008A40A9
:100940001A438260704700BF00000240000402406A
:1009500000080240000C024000100240001C02404F
:10096000012A06D0052870D8DFE800F03A434C553C
:100970005E67052869D8DFE800F0030B131B232B03
:1009800032484369012202FA01F11943416170477B
:100990002F484369012202FA01F11943416170476E
:1009A0002C484369012202FA01F119434161704761
:1009B00029484369012202FA01F119434161704754
:1009C00026484369012202FA01F119434161704747
:1009D00023484369012202FA01F11943416170473A
:1009E0001A484369012202FA01F123EA0101416137
:1009F000704717484369012202FA01F123EA010115
:100A00004161704713484369012202FA01F123EA68
:100A100001014161704710484369012202FA01F166
:100A200023EA0101416170470C484369012202FA3F
:100A300001F123EA0101416170470948436901223C
:100A400002FA01F123EA010141617047000002400E
:100A50000004024000080240000C02400010024066
:100A6000001C0240032822D8DFE800F0020A121A14
:100A70000F480368012202FA01F11943016070472F
:100A80000C480368012202FA01F119430160704722
:100A900009480368012202FA01F119430160704715
:100AA00006480368012202FA01F119430160704708
:100AB0003038024034380240403802404438024066
:100AC000074A136843F001031360064B1A6822F0CB
:100AD00001021A601A6822F002021A60704700BF11
:100AE0000038024008380240014B00221A6070476B
:100AF00010E000E0044B586000229A601A6842F04F
:100B000001021A60704700BF10E000E0024B186855
:100B1000C0F30040704700BF10E000E0044B1A68CB
:100B200022F002021A601A6842EA40001860704718
:100B300010E000E010B50446FFF7D6FF0020FFF7F5
:100B4000EDFF4FF4FA6000FB04F0FFF7D3FFFFF76F
:100B5000DDFF0028FBD010BD01280ED910B50446DA
:100B6000FFF7C2FF0020FFF7D9FF6000FFF7C2FFC9
:100B7000FFF7CCFF0028FBD010BD704708B5FFF78A
:100B80009FFF00210846FFF76DFF01210020FFF7BE
:100B900069FFFFF7CBFC7F4C2046FFF7B9FD4FF410
:100BA000FA60FFF7C7FF2046FFF7B2FD4FF4FA6087
:100BB000FFF7C0FF7848FFF7ABFD4FF4FA60FFF78F
:100BC000B9FF7648FFF7A4FD4FF4FA60FFF7B2FFD4
:100BD0007348FFF79DFD4FF4FA60FFF7ABFF7148D4
:100BE000FFF796FD4FF4FA60FFF7A4FF6E48FFF79A
:100BF0008FFD4FF4FA60FFF79DFF6C48FFF788FD0B
:100C00004FF4FA60FFF796FF6948FFF781FD4FF454
:100C1000FA60FFF78FFF6748FFF77AFD4FF4FA603D
:100C2000FFF788FF6448FFF773FD4FF4FA60FFF7A2
:100C300081FF6248FFF76CFD4FF4FA60FFF77AFF1F
:100C40005F48FFF765FD4FF4FA60FFF773FF5D48FB
:100C5000FFF75EFD4FF4FA60FFF76CFF5A48FFF7AD
:100C600057FD4FF4FA60FFF765FF5848FFF750FD56
:100C70004FF4FA60FFF75EFF5548FFF749FD4FF468
:100C8000FA60FFF757FF5348FFF742FD4FF4FA6051
:100C9000FFF750FF5048FFF73BFD4FF4FA60FFF7B6
:100CA00049FF4E48FFF734FD4FF4FA60FFF742FF6B
:100CB0004B48FFF72DFD4FF4FA60FFF73BFF494823
:100CC000FFF726FD4FF4FA60FFF734FF4648FFF7C1
:100CD0001FFD4FF4FA60FFF72DFF4448FFF718FDA2
:100CE0004FF4FA60FFF726FF4148FFF711FD4FF47C
:100CF000FA60FFF71FFF3F48FFF70AFD4FF4FA6065
:100D0000FFF718FF3C48FFF703FD4FF4FA60FFF7C9
:100D100011FF3A48FFF7FCFC4FF4FA60FFF70AFFB7
:100D20003748FFF7F5FC4FF4FA60FFF703FF35484B
:100D3000FFF7EEFC4FF4FA60FFF7FCFE3248FFF7D6
:100D4000E7FC4FF4FA60FFF7F5FE3048FFF7E0FCF0
:100D50004FF4FA60FFF7EEFE2D48FFF7D9FC4FF491
:100D6000FA60FFF7E7FE2B48FFF7D2FC4FF4FA607A
:100D7000FFF7E0FE2046FFF7CBFC4FF4FA60FFF7E9
:100D8000D9FE2046FFF7C4FC4FF4FA60FFF7D2FE0D
:100D900001E700BF1C010020100000201800002007
:100DA00070000020C8000020E0000020E8000020C3
:100DB000F0000020F80000200001002008010020C1
:100DC00020000020280000203000002038000020F3
:100DD0004000002048000020500000205800002063
:100DE00060000020680000207800002080000020C3
:100DF000880000209000002098000020A000002023
:100E0000A8000020B0000020B8000020C000002092
:100E1000D0000020D80000200000000000000000EA
:080E20000102030406070809A2
:100E28007856341218010020000000000024F40055
:100E380001000000000000000201000000000000A6
:100E480017001F051F0001021517001F051F0001CD
:100E58001D1517001F051F00001D1517001F051F72
:100E680017001D1517001F051517001D1517001F62
:100E78001D1517001D151700001D1517001D151746
:100E88001F001D1517001D15151F001D1517001D26
:100E98001C0201000000000015151F001D15170099
:100EA8000015151F001D15171F0015151F001D150E
:100EB8000D1F0015151F001D170D1F0015151F000C
:100EC80000170D1F0015151F0000170D1F00151521
:100ED800000000170D1F001500000000170D1F006F
:100EE8000000000000170D1F021C02010000000096
:100EF800000000000000170D0000000000000017AF
:100F080001021C02010000000001021C0201000095
:100F18001F0001021C020100051F0001021C020142
:100F28001F051F0001021C02001F051F0001021CF3
:040F38003254769821
:040000050800019559
:00000001FF
