:020000040800F2
:1000000000000120C5020008CB020008CF02000852
:10001000E7020008EB0200080303000800000000EC
:100020000000000000000000000000001B030008AA
:100030001F03000800000000230300082703000836
:1000400035030008350300083503000835030008B0
:1000500035030008350300083503000835030008A0
:100060003503000835030008350300083503000890
:100070003503000835030008350300083503000880
:1000800035030008350300083503000800000000B0
:100090000000000000000000000000003503000820
:1000A0003503000835030008350300083503000850
:1000B0003503000835030008350300083503000840
:1000C0003503000835030008350300083503000830
:1000D0003503000835030008350300080000000060
:1000E0003503000835030008350300080000000050
:1000F00000000000000000000000000035030008C0
:10010000000000003503000835030008350300082F
:1001100000000000000000000000000000000000DF
:1001200035030008350300083503000835030008CF
:10013000350300080000000000000000000000007F
:10014000000000000000000000000000350300086F
:10015000350300083503000835030008350300089F
:10016000350300083503000800000000000000000F
:10017000000000000000000000000000000000007F
:10018000000000003503000800000000000000002F
:100190003503000800B583B000F0ECF8384B394A5D
:1001A0001360394A1360394900E02146384B9942BF
:1001B0000BD20A684B6801F10C0488689842F4D9A4
:1001C0001168196004330432F8E72E4B1A68314B7A
:1001D0009A4200D0FEE72C4B1A682F4B9A42F9D175
:1001E000274B2E4A13602E4A13602E4B05E0002049
:1001F000106004329342FAD80B462B4A934204D241
:10020000194651F8082B5B68F4E7244B1B6813B9B7
:10021000234B1B6803B1FEE700F0B8F8694601A85C
:1002200000F0A0F8214C224BE41AA4100025AC42A7
:1002300014DC204C204BE41AA4100025AC4213DC43
:100240000099019800F09AFC05461C4C1C4BE41ADE
:10025000A410002C0EDC284600F082F8144B53F852
:10026000253098470135E2E7134B53F8253098477E
:100270000135E3E7013C124B53F824309847E8E797
:10028000BABADECA00000020680000203803000867
:100290005003000878563412325476986C000020CF
:1002A0007400002050030008600300086003000889
:1002B0006003000860030008600300086003000892
:1002C0006003000808B5FFF765FF00BEFEE71EF0FB
:1002D000040F0CBFEFF30880EFF309807146124A58
:1002E000104700BEFEE700BEFEE71EF0040F0CBF85
:1002F000EFF30880EFF3098071460C4A104700BE07
:10030000FEE71EF0040F0CBFEFF30880EFF3098047
:100310007146074A104700BEFEE700BEFEE700BE7A
:10032000FEE700BEFEE77047E3020008FF02000898
:080330001703000800BEFEE700
:10033800F80F0008000000206C000020F80F0008EB
:1003480000000010000000106C0000207800002061
:0803580000000010000000107D
:10036000FEE7000001230360014B0B60704700BFF4
:100370000400002008B500F00DF8024A024B9A6014
:1003800008BD00BF0000000800ED00E008B500F067
:1003900021F808BD0C4B1A6842F001021A600021D6
:1003A00099601A6822F0847222F480321A60074A37
:1003B0005A601A6822F480221A60D960044B4FF008
:1003C00000629A60704700BF00380240103000247D
:1003D00000ED00E0224B9B6803F00C03042B14D0CB
:1003E000082B16D01BB11F4B1F4A1A6002E01D4B91
:1003F0001D4A1A601A4B9B68C3F303131B4AD15C56
:10040000184A1368CB4013607047164B184A1A609D
:10041000F0E7134B5A685B6803F03F0312F4800F58
:1004200013D0134AB2FBF3F20D4B5B68C3F388138E
:1004300003FB02F30A4A5268C2F30142013252003E
:10044000B3FBF2F3074A1360D4E7074AB2FBF3F2B7
:10045000034B5B68C3F3881303FB02F3EAE700BFB7
:10046000003802400C0000200024F400E80F0008CF
:1004700040787D0108B501220021104600F070FA95
:1004800001221146104600F06BFA012205211046A8
:1004900000F066FA01220621104600F061FA0122FE
:1004A0000721104600F05CFA01220821104600F0F6
:1004B00057FA01220921104600F052FA01220A21BE
:1004C000104600F04DFA08BD10B5044600F00102D8
:1004D0000021084600F044FAC4F340020121002044
:1004E00000F03EFAC4F380020221002000F038FA46
:1004F000C4F3C0020321002000F032FAC4F300125A
:100500000421002000F02CFAC4F340120521002041
:1005100000F026FAC4F380120621002000F020FA31
:10052000E2090721002000F01BFA10BD08B50122E6
:100530000021084600F060F901221146002000F079
:100540005BF901220221002000F056F9012203216B
:10055000002000F051F901220421002000F04CF9A4
:1005600001220521002000F047F901220621002088
:1005700000F042F901220721002000F03DF901229C
:100580000021104600F038F901221146104600F013
:1005900033F901220521104600F02EF9012206212F
:1005A000104600F029F901220721104600F024F935
:1005B00001220821104600F01FF9012209211046EE
:1005C00000F01AF901220A21104600F015F9002264
:1005D0001146104600F04EF900220121104600F0AD
:1005E00049F900220221104600F044F900220321BB
:1005F000104600F03FF900220421104600F03AF9BD
:1006000000220521104600F035F90022062110468F
:1006100000F030F900220721104600F02BF90022EB
:100620001146012000F026F900220121084600F0C1
:1006300021F900220521012000F01CF900220621E9
:10064000012000F017F900220721012000F012F923
:1006500000220821012000F00DF9002209210120CB
:1006600000F008F900220A21012000F003F901221C
:100670000021084600F036F901221146002000F062
:1006800031F901220221002000F02CF9012203217E
:10069000002000F027F901220421002000F022F9B7
:1006A00001220521002000F01DF901220621002071
:1006B00000F018F901220721002000F013F90122AF
:1006C0000021104600F00EF901221146104600F0FC
:1006D00009F901220521104600F004F90122062142
:1006E000104600F0FFF801220721104600F0FAF84A
:1006F00001220821104600F0F5F8012209211046D8
:1007000000F0F0F801220A21104600F0EBF808BDD5
:1007100010B50446FFF7AEFE2078FFF7D5FE0022A5
:100720001146012000F01CF944F6206000F014FA94
:10073000FFF7A0FE6078FFF7C7FE00220121084600
:1007400000F00EF944F6206000F006FAFFF792FE82
:10075000A078FFF7B9FE00220521012000F000F982
:1007600044F6206000F0F8F9FFF784FEE078FFF728
:10077000ABFE00220621012000F0F2F844F62060D2
:1007800000F0EAF9FFF776FE2079FFF79DFE0022E0
:100790000721012000F0E4F844F6206000F0DCF9C5
:1007A000FFF768FE6079FFF78FFE00220821012025
:1007B00000F0D6F844F6206000F0CEF9FFF75AFEBC
:1007C000A079FFF781FE00220921012000F0C8F87E
:1007D00044F6206000F0C0F9FFF74CFEE079FFF727
:1007E00073FE00220A21012000F0BAF844F62060CE
:1007F00000F0B2F910BD000005282DD8DFE800F0A8
:10080000030A11181F261548036849008A401A4335
:10081000026070471248036849008A401A43026028
:1008200070471048036849008A401A4302607047C5
:100830000D48036849008A401A43026070470B481C
:10084000036849008A401A430260704708480368F9
:1008500049008A401A430260704700BF000002400E
:100860000004024000080240000C02400010024058
:10087000001C0240052827D8DFE800F003090F1507
:100880001B21124843688A401A434260704710484F
:1008900043688A401A43426070470E4843688A4062
:1008A0001A43426070470C4843688A401A434260CA
:1008B00070470A4843688A401A43426070470848B4
:1008C00043688A401A434260704700BF00000240FC
:1008D0000004024000080240000C024000100240E8
:1008E000001C024005282DD8DFE800F0030A11188B
:1008F0001F261548836849008A401A438260704762
:100900001248836849008A401A4382607047104841
:10091000836849008A401A43826070470D488368A3
:1009200049008A401A43826070470B488368490037
:100930008A401A43826070470848836849008A40A9
:100940001A438260704700BF00000240000402406A
:1009500000080240000C024000100240001C02404F
:10096000012A06D0052870D8DFE800F03A434C553C
:100970005E67052869D8DFE800F0030B131B232B03
:1009800032484369012202FA01F11943416170477B
:100990002F484369012202FA01F11943416170476E
:1009A0002C484369012202FA01F119434161704761
:1009B00029484369012202FA01F119434161704754
:1009C00026484369012202FA01F119434161704747
:1009D00023484369012202FA01F11943416170473A
:1009E0001A484369012202FA01F123EA0101416137
:1009F000704717484369012202FA01F123EA010115
:100A00004161704713484369012202FA01F123EA68
:100A100001014161704710484369012202FA01F166
:100A200023EA0101416170470C484369012202FA3F
:100A300001F123EA0101416170470948436901223C
:100A400002FA01F123EA010141617047000002400E
:100A50000004024000080240000C02400010024066
:100A6000001C0240032822D8DFE800F0020A121A14
:100A70000F480368012202FA01F11943016070472F
:100A80000C480368012202FA01F119430160704722
:100A900009480368012202FA01F119430160704715
:100AA00006480368012202FA01F119430160704708
:100AB0003038024034380240403802404438024066
:100AC000074A136843F001031360064B1A6822F0CB
:100AD00001021A601A6822F002021A60704700BF11
:100AE0000038024008380240014B00221A6070476B
:100AF00010E000E0044B586000229A601A6842F04F
:100B000001021A60704700BF10E000E0024B186855
:100B1000C0F30040704700BF10E000E0044B1A68CB
:100B200022F002021A601A6842EA40001860704718
:100B300010E000E010B50446FFF7D6FF0020FFF7F5
:100B4000EDFF4FF4FA6000FB04F0FFF7D3FFFFF76F
:100B5000DDFF0028FBD010BD01280ED910B50446DA
:100B6000FFF7C2FF0020FFF7D9FF6000FFF7C2FFC9
:100B7000FFF7CCFF0028FBD010BD704780B5FFF712
:100B80009FFF00210846FFF76DFF01210020FFF7BE
:100B900069FFFFF7CBFCF948FFF7BAFD4FF4FA60A5
:100BA000FFF7C8FFF648FFF7B3FD4FF4FA60FFF711
:100BB000C1FFF44D2846FFF7ABFD4FF4FA60FFF795
:100BC000B9FFF14C2046FFF7A3FD4FF4FA60FFF7A1
:100BD000B1FF2846FFF79CFD4FF4FA60FFF7AAFF2C
:100BE0002046FFF795FD4FF4FA60FFF7A3FF284674
:100BF000FFF78EFD4FF4FA60FFF79CFF2046FFF7EA
:100C000087FD4FF4FA60FFF795FF2846FFF780FD58
:100C10004FF4FA60FFF78EFF2046FFF779FD4FF49F
:100C2000FA60FFF787FF2846FFF772FD4FF4FA607E
:100C3000FFF780FF2046FFF76BFD4FF4FA60FFF7E8
:100C400079FF2846FFF764FD4FF4FA60FFF772FF63
:100C50002046FFF75DFD4FF4FA60FFF76BFF284673
:100C6000FFF756FD4FF4FA60FFF764FF2046FFF7E9
:100C70004FFD4FF4FA60FFF75DFF2846FFF748FD90
:100C80004FF4FA60FFF756FF2046FFF741FD4FF49F
:100C9000FA60FFF74FFF2846FFF73AFD4FF4FA607E
:100CA000FFF748FF2046FFF733FD4FF4FA60FFF7E8
:100CB00041FF2846FFF72CFD4FF4FA60FFF73AFF9B
:100CC0002046FFF725FD4FF4FA60FFF733FF284673
:100CD000FFF71EFD4FF4FA60FFF72CFF2046FFF7E9
:100CE00017FD4FF4FA60FFF725FF2846FFF710FDC8
:100CF0004FF4FA60FFF71EFF2046FFF709FD4FF49F
:100D0000FA60FFF717FF2846FFF702FD4FF4FA607D
:100D1000FFF710FF2046FFF7FBFC4FF4FA60FFF7E8
:100D200009FF2846FFF7F4FC4FF4FA60FFF702FFD3
:100D30002046FFF7EDFC4FF4FA60FFF7FBFE284674
:100D4000FFF7E6FC4FF4FA60FFF7F4FE2046FFF7EA
:100D5000DFFC4FF4FA60FFF7EDFE2846FFF7D8FC02
:100D60004FF4FA60FFF7E6FE2046FFF7D1FC4FF4A0
:100D7000FA60FFF7DFFE2846FFF7CAFC4FF4FA607F
:100D8000FFF7D8FE2046FFF7C3FC4FF4FA60FFF7E9
:100D9000D1FE7E4C2046FFF7BBFC4FF4FA60FFF714
:100DA000C9FE2046FFF7B4FC4FF4FA60FFF7C2FE1D
:100DB000774C2046FFF7ACFC4FF4FA60FFF7BAFE21
:100DC0002046FFF7A5FC4FF4FA60FFF7B3FE714C25
:100DD0002046FFF79DFC4FF4FA60FFF7ABFE20467C
:100DE000FFF796FC4FF4FA60FFF7A4FE6A4F38460F
:100DF000FFF78EFC4FF4FA60FFF79CFE674E30461B
:100E0000FFF786FC4FF4FA60FFF794FE644D284626
:100E1000FFF77EFC4FF4FA60FFF78CFE614C204632
:100E2000FFF776FC4FF4FA60FFF784FE3846FFF7D1
:100E30006FFC4FF4FA60FFF77DFE3046FFF768FC69
:100E40004FF4FA60FFF776FE2846FFF761FC4FF497
:100E5000FA60FFF76FFE2046FFF75AFC4FF4FA6086
:100E6000FFF768FE3846FFF753FC4FF4FA60FFF7D0
:100E700061FE3046FFF74CFC4FF4FA60FFF75AFE74
:100E80002846FFF745FC4FF4FA60FFF753FE204673
:100E9000FFF73EFC4FF4FA60FFF74CFE3846FFF7D1
:100EA00037FC4FF4FA60FFF745FE3046FFF730FCA1
:100EB0004FF4FA60FFF73EFE2846FFF729FC4FF497
:100EC000FA60FFF737FE2046FFF722FC4FF4FA6086
:100ED000FFF730FE3846FFF71BFC4FF4FA60FFF7D0
:100EE00029FE3046FFF714FC4FF4FA60FFF722FEAC
:100EF0002846FFF70DFC4FF4FA60FFF71BFE204673
:100F0000FFF706FC4FF4FA60FFF714FE3846FFF7D0
:100F1000FFFB4FF4FA60FFF70DFE3046FFF7F8FBDA
:100F20004FF4FA60FFF706FE2846FFF7F1FB4FF497
:100F3000FA60FFF7FFFD2046FFF7EAFB4FF4FA6087
:100F4000FFF7F8FD3846FFF7E3FB4FF4FA60FFF7D1
:100F5000F1FD3046FFF7DCFB4FF4FA60FFF7EAFDE6
:100F60002846FFF7D5FB4FF4FA60FFF7E3FD204674
:100F7000FFF7CEFB4FF4FA6016E000BF1000002030
:100F80001800002028000020300000203800002039
:100F900040000020480000205000002058000020A1
:100FA0006000002020000020FFF7C4FD3846FFF756
:100FB000AFFB4FF4FA60FFF7BDFD3046FFF7A8FB2B
:100FC0004FF4FA60FFF7B6FD2846FFF7A1FB4FF498
:100FD000FA60FFF7AFFD2046FFF79AFB4FF4FA6087
:100FE000FFF7A8FDD7E500BF0000000000000000EB
:080FF0000102030406070809D1
:100FF8007856341270000020000000000024F4002D
:1010080000000000977E970000000000877EB70070
:10101800F97AFC7830B77E8700000000877EB73009
:1010280000000000877EB74800000030B77E8700C8
:1010380000007830B77E870000787830B77E870068
:1010480078787830B77E87007878787830B77E8778
:0C1058007AFC787830B77E8732547698A6
:040000050800019559
:00000001FF
